:100000000C9477000C9490020C942B020C949002A8
:100010000C9490020C9490020C9490020C94900218
:100020000C9490020C9490020C9490020C94900208
:100030000C9490020C9490020C9490020C949002F8
:100040000C9490020C9490020C9490020C949002E8
:100050000C9490020C9490020C9490020C949002D8
:100060000C943A020C947D010C9490020C94900232
:100070000C9490020C9490020C9490020C949002B8
:100080000C9490020C9490020C9490020C949002A8
:100090000C9490020C9490020C9490020C94900298
:1000A0000C9490020C9490020C9490020C94900288
:1000B0000C9490020C9490020C9490020C94900278
:1000C0000C9490020C9490020C9490020C94900268
:1000D0000C9490020C9490020C9490020C94900258
:1000E0000C9490020C949002400040068000112471
:1000F0001FBECFEFCDBFDFE7DEBFE8EEF0E040E0B0
:1001000019C0B791A79137912791079107FD0EC0AC
:1001100097918791EF01F92FE82F0BBF07900D9270
:10012000A217B307D9F7FE011BBE04C01D92A21788
:10013000B307E1F7ED3EF40721F70E94D9010C94D3
:06014000A100F894FFCFBE
:100146000F931F93CF93DF930E94460140E054E044
:100156006FEFFA01608320E234E0F901608380E406
:1001660094E07FE3FC017083C0E6D4E06883A0E8F6
:10017600B4E06C9300EA14E0F8016083FA0114829B
:10018600F9011482FC0114821C8214961C921497A5
:10019600F8011482FA01108A118A128A138A148AC3
:1001A600158A168A178AF901108A118A128A138A01
:1001B600148A158A168A178AFC01108A118A128AED
:1001C600138A148A158A168A178A188A198A1A8A25
:1001D6001B8A1C8A1D8A1E8A1F8A50961C9250975B
:1001E60051961C92519752961C92529753961C9276
:1001F600539754961C92549755961C92559756961B
:100206001C92569757961C925797F801108A118A96
:10021600128A138A148A158A168A178AFA0113868D
:10022600168615861486F901138616861586148693
:10023600FC0113861686158614861B861E861D8669
:100246001C861B961C921B971E961C921E971D962B
:100256001C921D971C961C92F8011386168615860D
:100266001486E0EEF5E01186118210821482168261
:10027600178210861582128213821286DF91CF9121
:060286001F910F91089585
:10028C00E0E9F4E0808188608193E83984E0F80744
:10029C00C9F7E0EBF4E0808188608193E83B84E06F
:1002AC00F807C9F7E0E1F4E0808188608193E831D8
:1002BC0084E0F807C9F7E0E3F4E08081886081937B
:1002CC00E83384E0F807C9F7E0E5F4E08081886062
:1002DC008193E83584E0F807C9F7E0E7F4E0808122
:0E02EC0088608193E83784E0F807C9F7089529
:1002FA001F920F920FB60F9211240BB60F922F93E3
:10030A003F934F935F936F937F938F939F93AF9393
:10031A00BF93EF93FF93E0910440F091054030972B
:10032A0009F0099582E080930D06FF91EF91BF9144
:10033A00AF919F918F917F916F915F914F913F9173
:10034A002F910F900BBE0F900FBE0F901F90189514
:10035A0040E068ED88E790E00E94820240E068EDA4
:10036A008CE790E00E94820240E168ED81E690E02D
:10037A000E94820240E068ED80E690E00E948202DC
:10038A0040E068ED83E690E00E94820244E268ED74
:10039A0088E690E00E94820240E068ED82E690E002
:0803AA000E94820280E0089528
:1003B2000E941A02109200401092014010920240D4
:1003C20010920340C0E082E40E9461020E948C020B
:1003D2008823E1F30E94870240910040509101403E
:1003E2006091024070910340480F591F611D711DB9
:1003F2004093004050930140609302407093034049
:08040200CF5FC03801F7D6CF2F
:10040A00E0E0F6E0118212821382148216861386C5
:10041A001486108611868FE18583148A158A128ABA
:0A042A00138A81E0808380E00895CA
:100434000E94A3000E9455020E9472020E94AD0114
:100444000E946A020E9405020E9449020E947A02E6
:02045400089509
:100456001F920F920FB60F9211248F9381E0809313
:0E0466008A008F910F900FBE0F901F90189577
:100474001F920F920FB60F9211248F9381E08093F5
:0E0484000D068F910F900FBE0F901F901895D0
:1004920040E068ED80E191E00E948202E0E1F1E05B
:0804A2001282138280E008952C
:1004AA0040E068ED80E890E00E948202E0E8F0E037
:0804BA001186108680E0089510
:1004C200E0E0F6E090819F7D9083808781E08287E3
:0204D20008958B
:1004D40040E068ED80E590E00E94820280E00895AB
:1004E40040E068ED80E091E00E94820280E008959F
:1004F400E0EAF0E0148281E08083128280E00895D3
:0A0504001BBEFC0164BF4083089594
:0A050E0080911006909111060895E7
:0805180080910D068170089529
:040520000C94000037
:02000004008278
:090000000000000000C000000037
:00000001FF
